:1000000017810020130101001305801697050020B9
:10001000938545FF170600201306C6FE63DCC50066
:100020008326050023A0D5001305450093854500D0
:10003000E3C8C5FE170500201305C5FC9705002081
:10004000938545FC6358B500232005001305450042
:10005000E34CB5FEEF00C0036F0000001305F5FF91
:10006000E31E05FE678000009307900063EAA70087
:1000700013050503B707004023A0A7006780000011
:10008000B70700401307500423A0E7006780000073
:10009000130101FE2328210137891E00232C810032
:1000A000232A9100232631012324410123225101D7
:1000B000232E1100930400003704004093093004FC
:1000C000130AD002930AF0041309094823203401CB
:1000D000930790052320F400232034019307A00305
:1000E0002320F400138504009307900063E0A70623
:1000F000EFF09FF7930700022320F4009307B00569
:100100002320F40013F77400930700001306D003B4
:100110009306800063F0E7042320C4009387170050
:10012000E39AD7FE9307D0052320F4009307D0006D
:100130002320F4009307A0002320F40013050900F6
:1001400093841400EFF09FF16FF05FF8130565FFE3
:100150006FF0DFF96316F700232054016FF01FFCE6
:08016000232044016FF09FFB16
:00000001FF
