:100000001781002013010100EF0050236F00000052
:10001000370700408327870093F71700E39C07FE0C
:100020002320A70067800000B707006023A4070013
:1000300023A8070023A6A7006388050003A787005D
:100040001367270023A4E7006780000037070060DC
:100050008327870093E747002324F7006780000089
:1000600083184500130101FA232C8104232C8103FA
:10007000232E1104232A9104232821052326310548
:10008000232441052322510523206105232E7103DA
:10009000232A91032328A1032326B103130C05006F
:1000A00003244502635A10612326B10013060000A1
:1000B000130E000013050000130800008327C10081
:1000C0009376F60F232CD10063C4072A63040460DF
:1000D00003274400938607009307040003172700B3
:1000E000631CD7006F00C00103A747008326C1002F
:1000F000031727006306D70083A70700E39607FED0
:10010000930600006F00C00093060400130407006C
:10011000032704002320D400E31807FE6384072884
:1001200003A7470013051500131505010317070062
:100130001355050193761700638C060013579740FB
:10014000137717003307E800131807011358080145
:1001500083A60700638C060003A7060023A0E70020
:100160008327040023A0F6002320D4008327C100A6
:1001700063CA0700138B170093170B0193D707412E
:100180002326F10013061600131606011356064126
:10019000E396C8F293172500B387C741B307F80069
:1001A0009397070193D70701232EF1006348B028E6
:1001B000832704009304040003A9070003A7470052
:1001C000032649008326090023A2C7002322E90051
:1001D00023A0D7008327C1002320090063CC071286
:1001E00083A744008326C10083972700638AD70032
:1001F00083A40400E39604FE8324040063840402C1
:10020000832744008325C10103950700EF20005B8D
:1002100083A40400232EA100E39404FE832404009D
:100220000327490083A6440083A70400130E10008F
:100230002322D90023A2E4002320F90023A02401D3
:100240001303000093040000930E0000930F1000AE
:10025000938E1E00930604009307000083A60600F9
:100260009387170063840600E39AC7FF130704000F
:1002700013060E0013840600638C0706630E060A3D
:10028000630C040A03284700032544008316080072
:10029000031F2500831528009398060193D80801B1
:1002A00093F606F093D88800B3E616012310D80021
:1002B00083160500B385E54113980601135808011C
:1002C00093F606F013588800B3E606012310D50014
:1002D0006354B00693060400032404001306F6FFDB
:1002E000630403022320D30013830600E39807F876
:1002F000630C0604630C0404930604001306F6FF63
:1003000003240400E31003FE938406001383060015
:100310006FF0DFFD83A744008326810183C70700B8
:10032000E380D7EE83A40400E39604FE8324040054
:10033000E39804EC6FF01FEF930607009387F7FF35
:10034000032707006FF0DFF9E31404F02320030014
:10035000638EFE07131E1E006380042813840400AE
:10036000930E000013030000930400006FF05FEE93
:100370006302043603274400930704000347070081
:10038000639CE6006FF0DFD703A747008326810157
:1003900003470700E306D7D683A70700E39607FEC7
:1003A0006FF01FD603A7460093071E00139E070198
:1003B00003071700135E0E01137717003307E800D9
:1003C00013180701135808016FF05FDA03A4040043
:1003D000630E042E83A744008325C1010395070003
:1003E000EF20C03D03240400232EA100E31404FEEB
:1003F0008320C105032481058324410503290105C8
:100400008329C104032A8104832A4104032B0104A4
:10041000832BC103032C8103832C4103032D010390
:10042000832DC10213010106678000006306041AD0
:100430002326B100232E0100232C01009307100076
:100440002324F10093078C02232AF100130D0400EA
:10045000130900001304000023280100130A1000F0
:1004600083270101930D0D00930B00009387170064
:100470002328F10083AD0D00938B1B0063860D00D4
:1004800083278100E398FBFE832C810063880B0E99
:1004900063880C1063860D10832A4D0083A94D00DC
:1004A00083940A0093F7040813FBF4076398070486
:1004B00093D5344093F5F5009397450013F77400F6
:1004C000B3E5F50083578C036306071A63004719E9
:1004D0001395040113550501138B04009385070040
:1004E000EF10D034137BFB0793F804F0B3681B01C3
:1004F000231CAC0293E8080823901A01839A090090
:1005000093F70A0893F4FA076398070493D53A40DF
:1005100093F5F5009397450013F77A00B3E5F500DE
:1005200083578C036302070E630C470B13950A0174
:100530001355050193840A0093850700EF10102FCF
:1005400093F4F40793F80AF0B3E81401231CAC0207
:1005500093E8080823901901B3049B406352900468
:1005600093870D0083AD0D00938CFCFF630409029B
:100570002320F90013890700E39C0BF0638A0C0227
:10058000638C0D0293870D00938CFCFF83AD0D00EF
:10059000E31009FE13840700138907006FF0DFFDE5
:1005A00093070D00938BFBFF032D0D006FF01FFCD5
:1005B000138D0D00E3960DEA0327010123200900A6
:1005C00093071000E306F7BE832781009397170077
:1005D0002324F100E31C04E6232000007300100034
:1005E0000325410113860700EF10C01B8357CC037E
:1005F0009314050193D404416396070483578C0335
:10060000231EAC026FF05FF39306200213870500F0
:1006100063D4D5001307200283162C0003160C00A8
:1006200083254C0103258C011377F70FEF10500041
:100630008357EC039314050193D40441639407009A
:10064000231FAC0283578C036FF01FEF032541017A
:1006500013860700EF1000158357CC03131B050109
:10066000135B0B416396070483578C03231EAC0274
:100670006FF0DFE6930620021387050063D4D500F0
:100680001307200283162C0003160C0083254C014F
:1006900003258C011377F70FEF1080798357EC0354
:1006A000131B0501135B0B4163940700231FAC026E
:1006B00083578C036FF09FE2E34AB0D62326B10044
:1006C000232E0100232C01006FF09FAE0325C101F2
:1006D0006FF01FD2832700007300100093074001C2
:1006E0003355F502B787FFFF23A0050013880708DD
:1006F00093860501138785001305E5FF931E3500DA
:10070000B38ED50123A2D501931F250023910E009E
:1007100023900E01B38FFE0193884E0063FED62115
:1007200013888E00637AF82123A6150123A40500FF
:1007300023A0E50093C7F7FF9308F0FF23921E0163
:100740002393FE00630A050693130601B782FFFF99
:1007500093D303019308000093C2F2FF138E860027
:100760006378DE05130F48006374FF0513930801D7
:1007700013530301B34773009397370093F7870729
:100780001373730023A0E600B3E7670023A0D5002E
:100790001397870023A20601B367F7002310F80020
:1007A000231158001387060013080F0093060E004C
:1007B00093881800E31415FB83270700638A070258
:1007C000930750003355F50237430000930610009D
:1007D0001303F3FF8328470063F0A61203270700E3
:1007E0002391D8009386160083270700E39407FE21
:1007F000930F1000930310009387050093080000E7
:1008000093050000130F0000130F1F00138507004E
:1008100013070000032505001307170063040500F4
:10082000E31AF7FF9386070013860F00930705006E
:10083000630C0706630C0608638A070803AE4600CC
:1008400003A3470003180E008312230003152E0094
:10085000931E080193DE0E01137808F093DE8E00DC
:100860003368D80123100E010318030033055540E7
:10087000131E0801135E0E01137808F0135E8E003C
:100880003368C801231003016352A00413880700D2
:1008900083A707001306F6FF6384080223A008015C
:1008A00093080800E31807F8630A0602638A070240
:1008B000138807001306F6FF83A70700E39008FEDE
:1008C00093050800930808006FF0DFFD1388060009
:1008D0001307F7FF83A606006FF01FFCE39607F2ED
:1008E00023A0080063067F04939F1F00E39605F092
:1008F000232000007300100013980601135808010C
:100900009307180003270700939787003348C80010
:1009100093F70770B3E7070103280700B3F76700F1
:100920002391F80093861600E31608EA6FF05FEC57
:1009300013850500678000009306070013880800F0
:10094000130700006FF01FE09308F6FF630C060A20
:100950009307450093864500B3B7F500B336D5003D
:1009600093C7170093C6160013B79800B3E7D700D4
:1009700013471700B377F70063880706B367B5001E
:1009800093F73700639207061378C6FF9387050035
:10099000130705003308B80083A6070013074700B4
:1009A00093874700232ED7FEE39807FF9377C6FF70
:1009B0003307F500B385F500B388F8406304F60407
:1009C000838705002300F700638E080283861500E5
:1009D00093071000A300D7006386F80283872500E1
:1009E0002301F700678000003306C5009307050068
:1009F000938515000387F5FF93871700A38FE7FE04
:100A0000E398C7FE67800000130101FF23248100E3
:100A10002326110013040500630806009395850141
:100A200093D58541EFF05FFE130504008320C100DC
:100A3000032481001301010167800000130101817B
:100A4000371700002326117E2324817E2322917EE6
:100A50002320217F232E317D232C417D232A517D8C
:100A60002328617D2326717D2324817D2322917D8E
:100A70001307079E130101DE33072700B7F7FFFFB7
:100A8000B307F70023A6A762374500001305459575
:100A90002324F10013840500EF204029B70400202F
:100AA0003749000037450000138604009305893656
:100AB00013058598EF208027B70700209386040050
:100AC0009387070063FAF6029387F7FFB387D7404F
:100AD00093F7C7FF93874700B386F600130789365D
:100AE00093870400032607009387470013074700F6
:100AF00023AEC7FEE398D7FE374900001305499B94
:100B0000EF20C022B7040020374500009385040081
:100B10001305C59BEF208021B70700201387040031
:100B2000938707006374F7029387F7FFB387E74063
:100B300093F7C7FF938747003307F70093870400B5
:100B400023A0070093874700E39CE7FE1305499B1A
:100B5000EF20C01D37170000B7F4FFFF9307079E73
:100B6000B38727001389C465338927019307079E3C
:100B7000B38727009385C46213060400B385B700CA
:100B80001305290413040700EF00D0589306049EB0
:100B9000B386260033849600130760069387046AA1
:100BA000B387F6002310E4661307007D232CE46668
:100BB0002322F466130770002324F466B73A153431
:100BC00093078131232EE4662326F46613078029D8
:100BD0009307015B938A5A4137450000232AE46654
:100BE0002328F4661305059E232E5465231E0468EE
:100BF000EF20C01337450000130585A0EF20001338
:100C00009307B0FF2328F462232A046203270463B6
:100C100083274463634AF70037450000130585A224
:100C2000EF20C0106F000000B7490000138509A72E
:100C3000EF20C00F37450000130A5000130585A7A9
:100C4000EF20C00E232C4463832784639387F7FF30
:100C5000E39E07FE138509A7232CF462EF20000D05
:100C600037450000130585A9EF20400CB71B000095
:100C700013870B9E9387C46433072700B307F700DD
:100C80002326F4642328046483A7470063940700A1
:100C90006F0080006F000000138509A7EF20000996
:100CA000374500001305C5ABEF204008374500006D
:100CB000130545AEEF20800783258466373B00008F
:100CC00013065B4113058029EFF05FA12320A46880
:100CD000374500001305C5AFEF2040058325C466E6
:100CE000130C890293060C0013860A001305802951
:100CF000EF00102F37450000130585B1EF200003EA
:100D00000326046793055B4113058029EF00104417
:100D100037450000130545B3EF204001374500007B
:100D2000130585B6EF20800037B6AAAA1306A6AA37
:100D3000232AC46413860B9E330626001387C463DC
:100D4000B7C7BBBB3307E60013860B9E9385B7BBC3
:100D50009386446533062600232CB464232E046254
:100D6000B306D60003A346009303130023207700A5
:100D70008325C4639387C7BB638AF50037450000AA
:100D80001305C5B8EF10907A6F000000B74A000055
:100D900013854ABBEF109079374500001305C5BB9A
:100DA000EF10D078371700001307079E938704646D
:100DB0003307270023200464B307F7001303500010
:100DC000930300001303F3FF93831300E31C03FE5C
:100DD00023A0770083250464638A4501374500001A
:100DE000130505BEEF1090746F00000013854ABB19
:100DF000EF10D07337450000130505BFB74400005E
:100E0000EF10D072138504C1EF105072138504C126
:100E1000EF10D07193040000B74C0000B74B0000F6
:100E2000374B0000B74A0000374A000093095000D2
:100E30009385040013850CC4EF10506F93051000C8
:100E400013050900EFF0CFA1231EA46413850BC581
:100E5000EF10D06D9305F0FF13050900EFF04FA0E0
:100E6000231FA46413058BC5EF10506C8316E46533
:100E70000317C465832584669397060193D70701FA
:100E80001306070013058029EF00907A2310A4664B
:100E900013850AC6EF109069035604669305000097
:100EA00013050C00EF0010108357C46993841400DD
:100EB000B307F500231EF46813058AC6EF10106708
:100EC000E39834F737450000130505C7EF101066A7
:100ED000B7370000938797032322F4649307A00099
:100EE0002324F46483254464032784649307204DFA
:100EF000B3D5E502638AF50037450000130505CA3E
:100F0000EF10D0626F00000037450000130545CC9C
:100F1000EF10D061374500001305C5CFEF10106109
:100F20000315C46593050000EF10500993050500F3
:100F30000315E465EF10900893050500031504669A
:100F4000EF10D0079305050003154467EF10100755
:100F5000B7870000938757B06300F52E63E8A72A90
:100F6000B72700009387278F6308F528B75700003D
:100F70009387F7EA631EF526374500001305C5D8A9
:100F8000EF10D05A93072000B71600009386069EF4
:100F9000B386260037F7FFFF3387E6002324E100FE
:100FA000832681000327C76713941700239E0668D2
:100FB00093771700638E0702B747000093878794E3
:100FC000B387870083D5666903D607006382C502AD
:100FD000374500001305C5E1EF1050558327810008
:100FE0000327810083D7C76993871700231EF768FB
:100FF000371700001307079EB7F7FFFF33072700D7
:10100000B307F7002324F10083A7C76793F72700EE
:1010100063800704B747000003278100938707FF19
:10102000B38787008355876903D607006382C502AB
:1010300037450000130585E4EF10504F83278100EA
:101040000327810083D7C76993871700231EF7689A
:10105000371700001307079EB7F7FFFF3307270076
:10106000B307F7002324F10083A7C76793F747006E
:1010700063800704B7470000032781009387C7FFF9
:10108000B38787008355A76903D607006382C5022B
:1010900037450000130585E7EF105049832781008D
:1010A0000327810083D7C76993871700231EF7683A
:1010B000371700001307079EB7F7FFFF3307270016
:1010C000B307F7000394C7692324F10037450000F4
:1010D000130545EAEF109045371700001307079EE8
:1010E00033072700B7F7FFFFB307F70083A547676C
:1010F00037450000130545EC2324F100EF101043A1
:10110000374500009305803E1305C5EDEF101042F2
:101110001305803EEF00007F930505003745000072
:10112000130545EFEF1090401305803EEF00807DE2
:10113000631E05081305803EEF00C07C93079000F6
:1011400063F8A706371700001307079E3307270029
:10115000B7F7FFFFB307F70083A5876737450000A0
:10116000130545F62324F100EF10503CB74500006D
:10117000374500009385C5F7130505F8EF10103BC0
:101180006310040237450000130585F9EF10103A8B
:10119000374500001305C5FCEF1050396F00000003
:1011A00037450000130585FBEF1050386FF05FFEE8
:1011B0003745000013041400130545F2131404010D
:1011C000EF10D036135404416FF0DFF7832781000E
:1011D0001305803E83A48767EF00C072B3D5A402D5
:1011E000374500001305C5F0EF1050346FF09FF441
:1011F0001304F0FF6FF09FED37450000130505DF86
:10120000EF10D032930740006FF01FD8B79700005F
:10121000938727A0630CF502B7F700009387579FC9
:10122000E318F5FC37450000130505DCEF1010301E
:10123000930730006FF05FD537450000130505D6E2
:10124000EF10D02E930710006FF01FD43745000029
:10125000130505D3EF10902D930700006FF0DFD238
:10126000130101FB232861032326110437FBFFFF31
:10127000232481042322910423202105232E3103DA
:10128000232C4103232A51032326710323248103A2
:10129000232291032320A103232EB1012324C10083
:1012A000336B67016308054C931B1500B308A0401E
:1012B000138D0500131C0701B30576011309060001
:1012C000939E18001303050093840600135C0C0121
:1012D0001386050013080000939828003385CE007C
:1012E0009307050083D6070093872700B306DC0029
:1012F000239FD7FEE398C7FE130418003306154159
:1013000063068300130804006FF05FFD330F804015
:10131000931D240093090D0013050D00130E00000A
:1013200013132F00B388BE0013060500938708002F
:10133000839607001306460093872700B386E602CC
:10134000232ED6FEE396B7FE93071E003305B501A4
:10135000B385684063060E01138E07006FF09FFC93
:10136000B30ABD0193880A0013050000930700002B
:1013700013060000930E0000131F3F00330E1301ED
:1013800093060E006F008001131505019386460039
:101390001355054193070700638E160303A7060044
:1013A0001315050113550501B3A7E7003306E60041
:1013B0009305A5003305F500E358CBFC1395050113
:1013C0009386460013550541130600009307070056
:1013D000E39616FD93861E00B308EE416306D8011E
:1013E000938E06006FF09FF993050000EF10003D0B
:1013F000130A050013860D009305000013050D0068
:10140000EFF08FE0832881003385740113080D000D
:1014100093870400938608001306000003970600D4
:101420008395070093872700938626003307B7022A
:101430003306E600E314F5FE2320C8001308480035
:10144000B3887801E3960AFD13030D00130500002D
:101450009307000093060000930800009305030023
:10146000130600006F00C0011315050113061600D6
:101470001355054193854500930707006370860463
:1014800003A705001315050113550501B3A7E700D0
:10149000B386E6001308A5003305F500E356DBFC30
:1014A0001315080113061600135505419306000095
:1014B0009385450093070700E36486FC9388180032
:1014C0003303B301E3EC88F893050A00EF10002F13
:1014D0002326A100130A4000631A0428832C8100EC
:1014E000130E0D00930A000013050E0013060A00E8
:1014F00093050000EFF04FD1130E0500130805000F
:1015000093880400130500001386080093860C00DE
:10151000930500001307000083970600031F0600D1
:101520001307170093862600B387E7033306760177
:10153000B385F500E36287FE2320B800130515008C
:101540001308480093882800E36085FC938A1A00FA
:10155000330EBE01B38C7C01E3E88AF813030D005F
:101560001305000093070000930600009308000095
:1015700093050300130600006F00C0011315050159
:101580001306160013550541938545009307070080
:101590006370860403A705001315050113550501A3
:1015A000B3A7E700B386E6001308A5003305F500EE
:1015B000E356DBFC1315080113061600135505410D
:1015C000930600009385450093070700E36486FCBB
:1015D000938818003303B301E3EC88F88325C10036
:1015E000930A0000EF10801D832C81002326A100A8
:1015F00013060A009305000013050D00EFF0CFC09D
:10160000138E040013030D009308000093050E00D1
:1016100013860C00130500009306000003970500D5
:10162000831706009386160013062600B387E70289
:10163000B385750113D7274093D757401377F70029
:1016400093F7F707B307F7023305F500E3E886FCE5
:101650002320A3009388180013034300130E2E00C9
:10166000E3E688FA938A1A00330DBD01B38C7C013E
:10167000E3E08AF8130500009307000093060000DA
:101680009308000093850900130600006F00C00155
:1016900013150501130616001355054193854500E2
:1016A000930707006370860403A70500131505015F
:1016B00013550501B3A7E700B386E6001308A5009C
:1016C0003305F500E356DBFC13150801130616007D
:1016D00013550541930600009385450093070700C5
:1016E000E36486FC93881800B389B901E3EC88F8B9
:1016F0008325C100EF10800C13060000930709003A
:101700009306000003D707009387270093861600EF
:1017100033078741239FE7FEE3E686FE13061600A4
:1017200033097901E36C86FC8320C104032481041E
:101730001315050183244104032901048329C103EE
:10174000032A8103832A4103032B0103832BC10254
:10175000032C8102832C4102032D0102832DC10140
:10176000135505411301010567800000138A0D0020
:101770006FF0DFD693050000EF10400493050500DD
:1017800013050000EF10800393050500130500000A
:10179000EF10C0029305050013050000EF100002D2
:1017A0006FF09FF8130101FF2324810013870500C8
:1017B000130406008325C500832685000326450003
:1017C0000325050023261100EFF09FA993050400CF
:1017D000032481008320C100130101016F00107EEA
:1017E000130101FF232681002324910023222101DC
:1017F0001308050063140600130610009383F5FF19
:1018000093F3C3FF9384430013050000631608009D
:101810006F00000E1305070013071500B307E7025A
:1018200093973700E3E807FFB302A5021309050009
:1018300093921200B383540063020508370E01002F
:1018400013141500938F0300130F000013081000EA
:10185000B38E7440130EFEFF93850F0093080000B3
:10186000330606039317080193D707013383BE009D
:101870009385250093881800130818001357F64124
:10188000135707013306E6003376C6013306E640F8
:101890003387C7001317070113570701B307F70072
:1018A000239FE5FE93F7F70F2310F300E3EAA8FA6E
:1018B000130F1F00B38F8F00E360AFFAB38753009D
:1018C0009387F7FF0324C10093F7C7FF938747006F
:1018D00023A2960023A0260123A4760023A6F600C7
:1018E0008324810003294100130101016780000066
:1018F000938363001309F0FF1305F0FF93022000A8
:101900006FF0DFF3B7F7FA02938707083355F50254
:1019100067800000130101FF23248100930500006C
:10192000130405001305F0FF23261100EFE0CFEFAD
:10193000EFE0CFF1930710002300F4008320C100F3
:101940000324810013010101678000009308F5FF63
:1019500093071000930F060063FA171913861500FA
:101960001316060113560601937776009387D7FF67
:10197000130101FF93970701B742000037480000A9
:10198000374F0000B74E0000374E000013573600A7
:1019900023268100232491009305400093D707015B
:1019A000930600009382C20313088800130FCF012F
:1019B00093038000938ECE04130ECE021303C00255
:1019C0001377370063E6F50A93972700B38707017B
:1019D00083A7070013172700678007003307EE006F
:1019E00013061600131606019387960003270700B7
:1019F0001356060163F0170D13048000834407009B
:101A0000B386DF002380960083441700A3809600EE
:101A1000834427002381960083443700A3819600E6
:101A20006304B40283444700238296008344570032
:101A3000A382960083446700238396006316740094
:101A400003477700A383E600B38686002380660001
:101A500093860700937776009387D7FF93970701C4
:101A60001357360093D7070113773700E3FEF5F4D9
:101A700013172700130616003387E200131606011A
:101A800093875600032707001356060163F41703D4
:101A9000130440006FF09FF6130616003387EE0024
:101AA00013160601938796000327070013560601B5
:101AB000E3E417F563F4A6020324C1008324810044
:101AC0003306D540930500003385DF001301010183
:101AD0006FE09FF33307EF006FF09FF00324C10026
:101AE0008324810013010101678000009306000038
:101AF0003306D540930500003385DF006FE0DFF04B
:101B00008327050083C607006388062E1308C002DA
:101B100013871700638E062B83A80500138606FD26
:101B20001376F60F1303900093881800636CC30AB2
:101B300023A0150183C61700638406169387270028
:101B4000638E0615138606FD1308E00293089000C5
:101B50001303C0021376F60F6386060363E0C80C16
:101B60008346170013861700138707006388061241
:101B7000638A662A93070600138606FD1376F60F1E
:101B8000E39E06FD83A605019386160023A8D500D3
:101B900083461700638206281307C00213861700C6
:101BA0006382E62213085004930890001303C002D6
:101BB000138706FD93F6F60D1377F70F6386060F6E
:101BC00063FAE81A83A6450113070600930710007D
:101BD0009386160023AAD5002320E500138507006D
:101BE000678000001306B002638AC6041306D002A1
:101BF0006386C6041306E002638CC61883A64500FC
:101C000023A01501930710009386160023A2D50088
:101C10002320E500138507006780000083A60501E7
:101C200013870700930710009386160023A8D5009A
:101C30002320E500138507006780000023A015011D
:101C400083C817006380081C13872700638C081B58
:101C500003A68500938608FD93F6F60F13089000FF
:101C6000130616006370D8029306E0026380D8144E
:101C700023A4C500930710002320E5001385070067
:101C80006780000023A4C50083C62700638A06007E
:101C90001306C00293071700E396C6EA13870700EE
:101CA000930740006FF0DFF803A745011307170003
:101CB00023AAE50083C71700638A07121308C0022E
:101CC000130716006386071383A6C500938757FD85
:101CD00093F7D70F9386160023A6D500638A0700D3
:101CE000930710002320E50013850700678000009C
:101CF000834716006388070E130726006384070FC7
:101D000083A68501938707FD93F7F70F9386160047
:101D10009308900023ACD500E3E4F8FC834626004A
:101D2000638E060A930736006388060B130690003D
:101D30009308C002938606FD93F6F60F637ED600E5
:101D400083A64500138707009307100093861600AB
:101D500023A2D5006FF0DFED83461700138817002C
:101D600013870700638A06066382160B9307080031
:101D70006FF05FFC83C61700130716009307060079
:101D80006382060463826604130607006FF05FE255
:101D900023A0150183C61700638806021386270057
:101DA00063820603930707006FF0DFDF23A4C500FB
:101DB00083C62700638A06009307C0021306170034
:101DC000E392F6FE13070600930750006FF05FE6FC
:101DD000930700006FF0DFE513870700930770009B
:101DE0006FF01FE5930760006FF09FE41307060094
:101DF000930730006FF0DFE31387070093070000BD
:101E00006FF01FE3930720006FF09FE213070800B5
:101E1000930770006FF0DFE113870700930750000E
:101E20006FF01FE113070600930740006FF05FE0BB
:101E3000130101F8232C8106232A91062328210768
:101E4000232631072324410723206107232E710510
:101E5000232E1106232251071384050083C5050094
:101E600093040103232801022326810023A20400F6
:101E700023A4040023A6040023A8040023AA04002A
:101E800023AC040023AE040023280100232A010010
:101E9000232C0100232E0100232001022322010212
:101EA0002324010223260102930B0500130B0600D5
:101EB000138A06001309070093890700638E05142F
:101EC000930AC1009385040013850A00EFF05FC3F5
:101ED00093070105131525003385A7000327C100CB
:101EE000832705FC03470700938717002320F5FC91
:101EF000E31A07FC23268100B30B74018345040019
:101F0000637274139306C0029307040033C765011C
:101F10006382D5022380E7008327C100B3872701AE
:101F20002326F10063FE770183C5070033C76501EF
:101F3000E392D5FEB38727012326F100E3E677FF7E
:101F40008347040023268100930AC100638E0702A1
:101F50009385040013850A00EFF09FBA93070105EB
:101F6000131525003385A7000327C100832705FC2F
:101F700003470700938717002320F5FCE31A07FCAB
:101F800023268100637474039306C0028347040010
:101F900033C74701638AD7062300E4000324C10046
:101FA0003304240123268100E36274FF130401013A
:101FB00013890400032504009385090013044400D9
:101FC000EF00C02E93050500032509001309490001
:101FD000EF00C02D93090500E39E84FC8320C10718
:101FE0000324810783244107032901078329C106AC
:101FF000032A8106832A4106032B0106832BC10590
:1020000013010108678000003304240123268100A6
:10201000E36E74F76FF09FF9B30BA400E36474EF01
:102020006FF0DFF8E39605F26FF05FF833C6A500B6
:102030009376F50F1376160013D7160093D7150075
:10204000630C060037A6FFFF13061600B3C7C700D0
:102050009397070193D7070133C7E700137617005B
:1020600093D7170013D72600630C060037A6FFFF8F
:1020700013061600B3C7C7009397070193D707014C
:1020800033C7E7001377170013D6360093D717002E
:10209000630C070037A7FFFF13071700B3C7E7005C
:1020A0009397070193D7070133C6C700137616002D
:1020B00013D7460093D71700630C060037A6FFFF1F
:1020C00013061600B3C7C7009397070193D70701FC
:1020D00033C7E7001377170013D6560093D71700BE
:1020E000630C070037A7FFFF13071700B3C7E7000C
:1020F0009397070193D7070133C6C70013761600DD
:1021000013D7660093D71700630C060037A6FFFFAE
:1021100013061600B3C7C7009397070193D70701AB
:1021200033C7E7001377170093D6760093D71700CD
:10213000630C070037A7FFFF13071700B3C7E700BB
:102140009397070193D7070113F7170093D7170049
:10215000630CD70037A7FFFF13071700B3C7E700CB
:102160009397070193D707011355850033C6A7003E
:102170001377F50F137616009356170013D5170033
:10218000630C0600B7A7FFFF938717003345F500E0
:102190001315050113550501B3C6A60093F61600E5
:1021A0009357270013551500638C0600B7A6FFFF51
:1021B000938616003345D500131505011355050107
:1021C000B347F50093F717009356370013551500E2
:1021D000638C0700B7A7FFFF938717003345F5000F
:1021E0001315050113550501B346D50093F61600E6
:1021F0009357470013551500638C0600B7A6FFFFE1
:10220000938616003345D5001315050113550501B6
:10221000B347F50093F71700935657001355150071
:10222000638C0700B7A7FFFF938717003345F500BE
:102230001315050113550501B346D50093F6160095
:102240009357670013551500638C0600B7A6FFFF70
:10225000938616003345D500131505011355050166
:10226000B347F50093F71700135777001355150080
:10227000638C0700B7A7FFFF938717003345F5006E
:102280001315050113550501937715001355150016
:10229000638CE700B7A7FFFF938717003345F5006E
:1022A00013150501135505016780000033C8A5000B
:1022B0009376F50F131705011378180013570701CC
:1022C00013D6160093D71500630C0800B7A5FFFFBF
:1022D00093851500B3C7B7009397070193D70701FC
:1022E00033C6C7009375160093D7170013D6260080
:1022F000638C0500B7A5FFFF93851500B3C7B70032
:102300009397070193D7070133C6C70013761600CA
:1023100093D5360093D71700630C060037A6FFFF4E
:1023200013061600B3C7C7009397070193D7070199
:10233000B3C5B70093F5150013D6460093D7170021
:10234000638C0500B7A5FFFF93851500B3C7B700E1
:102350009397070193D7070133C6C700137616007A
:1023600093D5560093D71700630C060037A6FFFFDE
:1023700013061600B3C7C7009397070193D7070149
:10238000B3C5B70093F5150013D6660093D71700B1
:10239000638C0500B7A5FFFF93851500B3C7B70091
:1023A0009397070193D7070133C6C700137616002A
:1023B00093D6760093D71700630C060037A6FFFF6D
:1023C00013061600B3C7C7009397070193D70701F9
:1023D00013F6170093D71700630CD600B7A6FFFFBC
:1023E00093861600B3C7D7009397070193D70701C9
:1023F00013578700B3C6E70093F616001377F70F5D
:102400001356170093D71700638C0600B7A6FFFF7B
:1024100093861600B3C7D7009397070193D7070198
:1024200033C6C700137616009356270093D71700BC
:10243000630C060037A6FFFF13061600B3C7C700DC
:102440009397070193D70701B3C6D70093F61600F9
:102450001356370093D71700638C0600B7A6FFFF0B
:1024600093861600B3C7D7009397070193D7070148
:1024700033C6C700137616009356470093D717004C
:10248000630C060037A6FFFF13061600B3C7C7008C
:102490009397070193D70701B3C6D70093F61600A9
:1024A0001356570093D71700638C0600B7A6FFFF9B
:1024B00093861600B3C7D7009397070193D70701F8
:1024C00033C6C700137616009356670093D71700DC
:1024D000630C060037A6FFFF13061600B3C7C7003C
:1024E0009397070193D70701B3C6D70093F6160059
:1024F0001357770093D71700638C0600B7A6FFFF2A
:1025000093861600B3C7D7009397070193D70701A7
:1025100093F6170093D71700638CE60037A7FFFFE9
:1025200013071700B3C7E7009397070193D7070175
:1025300013550501B3C5A7001377F50F93160501D1
:1025400093F5150093D606011356170013D51700FF
:10255000638C0500B7A7FFFF938717003345F5008D
:1025600013150501135505013346C50013761600F2
:102570009357270013551500630C060037A6FFFF7D
:10258000130616003345C500131505011355050143
:10259000B347F50093F7170013563700135515008E
:1025A000638C0700B7A7FFFF938717003345F5003B
:1025B00013150501135505013346C50013761600A2
:1025C0009357470013551500630C060037A6FFFF0D
:1025D000130616003345C5001315050113550501F3
:1025E000B347F50093F7170013565700135515001E
:1025F000638C0700B7A7FFFF938717003345F500EB
:1026000013150501135505013346C5001376160051
:102610009357670013551500630C060037A6FFFF9C
:10262000130616003345C5001315050113550501A2
:10263000B347F50093F717001357770013551500AC
:10264000638C0700B7A7FFFF938717003345F5009A
:102650001315050113550501937715001355150042
:10266000638CE700B7A7FFFF938717003345F5009A
:10267000131505011355050193D786003347F5005F
:102680001377170093F7F70F93D61700135515001C
:10269000630C070037A7FFFF130717003345E5005A
:1026A0001315050113550501B346D50093F6160021
:1026B00013D7270013551500638C0600B7A6FFFF3C
:1026C000938616003345D5001315050113550501F2
:1026D0003347A7001377170093D63700135515001B
:1026E000630C070037A7FFFF130717003345E5000A
:1026F0001315050113550501B3C6A60093F6160080
:1027000013D7470013551500638C0600B7A6FFFFCB
:10271000938616003345D5001315050113550501A1
:102720003347A7001377170093D6570013551500AA
:10273000630C070037A7FFFF130717003345E500B9
:102740001315050113550501B3C6A60093F616002F
:1027500013D7670013551500638C0600B7A6FFFF5B
:10276000938616003345D500131505011355050151
:102770003347A7001377170093D777001355150039
:10278000630C070037A7FFFF130717003345E50069
:102790001315050113550501137715001355150081
:1027A000630CF700B7A7FFFF938717003345F500C9
:1027B00013150501135505016780000033C6A500F8
:1027C0001377F50F931705011376160093D70701BA
:1027D0009356170013D51500630C0600B7A5FFFF2D
:1027E000938515003345B5001315050113550501F3
:1027F000B346D50013F6160013551500935627005F
:10280000630C0600B7A5FFFF938515003345B5009F
:102810001315050113550501B346D50093F61600AF
:102820001356370013551500638C0600B7A6FFFF3B
:10283000938616003345D500131505011355050180
:102840003346C500137616009356470013551500FE
:10285000630C060037A6FFFF130616003345C500BC
:102860001315050113550501B346D50093F616005F
:102870001356570013551500638C0600B7A6FFFFCB
:10288000938616003345D500131505011355050130
:102890003346C5001376160093566700135515008E
:1028A000630C060037A6FFFF130616003345C5006C
:1028B0001315050113550501B346D50093F616000F
:1028C0001357770013551500638C0600B7A6FFFF5A
:1028D000938616003345D5001315050113550501E0
:1028E0009376150013551500638CE60037A7FFFF9C
:1028F000130717003345E5001315050113550501AE
:1029000093D787003347F5001377170093F7F70F36
:1029100093D6170013551500630C070037A7FFFF68
:10292000130717003345E50013150501135505017D
:10293000B3C6A60093F6160013D72700135515004B
:10294000638C0600B7A6FFFF938616003345D500BB
:1029500013150501135505013347E50013771700DB
:1029600093D6370013551500630C070037A7FFFFF8
:10297000130717003345E50013150501135505012D
:10298000B346D50093F6160013D74700135515002C
:10299000638C0600B7A6FFFF938616003345D5006B
:1029A00013150501135505013347E500137717008B
:1029B00093D6570013551500630C070037A7FFFF88
:1029C000130717003345E5001315050113550501DD
:1029D000B346D50093F6160013D7670013551500BC
:1029E000638C0600B7A6FFFF938616003345D5001B
:1029F00013150501135505013347E500137717003B
:102A000093D7770013551500630C070037A7FFFF16
:102A1000130717003345E50013150501135505018C
:102A20001377150013551500630CF700B7A7FFFFC8
:102A3000938717003345F50013150501135505015C
:102A400067800000130101F6232A9108232441091D
:102A5000232E1108232C810823282109232631093C
:102A60002322510923206109232E7107232C81077A
:102A7000232A91072328A1072326B10713F8070467
:102A800093040500130A06006306081EB7480000F9
:102A90009388083413FD070163100D1C13F617000B
:102AA00013FE1701130C0003630C061A13F627001C
:102AB00093FD07026306061C63C8051C13F6470056
:102AC000631A062093F7870013030000638607004C
:102AD0009386F6FF13030002638C0D009307000139
:102AE000630CFA2093078AFF93B71700B386F6406A
:102AF0006394051A93070003230EF10013090000E5
:102B0000930C1000930910001304C101938A0C0068
:102B100063D4EC00930A0700338B5641930BFBFF01
:102B200063160E02635C601F13060B00138504001E
:102B30009305000223266100EFD01FED0323C1009F
:102B4000B3846401930BE0FF130BF0FF63060300F3
:102B50002380640093841400638A0D00930780002F
:102B60006300FA1A93070001630CFA16631C0D0246
:102B70006350601B13CAFBFF135AFA4133FA4B012F
:102B8000130D1A00138BFBFF1385040013060D00B1
:102B900093050C00330B4B41EFD01FE7B384A40126
:102BA000930BFBFF63DE5C01B38A9A41138504003B
:102BB00013860A0093050003EFD01FE5B384540188
:102BC00033062401138704001305100013071700B0
:102BD00083450600B307E540B3872701A30FB7FE7F
:102BE000B387F4001306F6FFE342F0FEB38434012A
:102BF0006354600393C7FBFF93D7F74133F4FB00A3
:102C00001304140013850400130604009305000246
:102C1000EFD09FDFB38484008320C109032481099E
:102C20001385040003290109832441098329C1086C
:102C3000032A8108832A4108032B0108832BC1073B
:102C4000032C8107832C4107032D0107832DC10627
:102C50001301010A6780000093F7E7FF130E0D00D0
:102C600013F62700130C000293FD0702630A060007
:102C70006FF09FE4B7480000938888316FF09FE1C0
:102C8000130300006FF05FE5B305B0409386F6FFD5
:102C90001303D002E3940DE4130900001304C101EF
:102CA0006F00800013890900B3F7450393091900E9
:102CB0003308340113850500938C0900B387F800AD
:102CC00083C70700B3D54503A30FF8FEE37C45FD9A
:102CD0006FF0DFE39386F6FF1303B0026FF0DFDFE0
:102CE000930700032380F40093078007A380F40078
:102CF000938424006FF09FE79386E6FF6FF05FDF19
:102D0000930700032380F400938414006FF01FE600
:102D1000138B0B00938BFBFF6FF0DFE89307EBFF48
:102D2000138B0B00938B07006FF05FE2130101EF31
:102D30002326710D2326110E2324810E2322910EAA
:102D40002320210F232E310D232C410D232A510D39
:102D50002328610D2324810D2322910D2320A10D11
:102D6000232EB10B232AB10E232CC10E232ED10EFC
:102D70002320E1102322F110232401112326111115
:102D800083070500930B410F232A7101E38A07246F
:102D900013090103374C0000374A0000B74900000F
:102DA00013040500130B0900130CCC10130A0A15A9
:102DB00093898931B74A0000130750026386E708F8
:102DC0002300FB0083071400130B1B0013041400E3
:102DD000E39407FE23000B00030501031304100016
:102DE0009304A0003304244193070000630E050000
:102DF00063029512EFD0CFA1B30789001309190020
:102E000003050900E31605FE8320C10E0324810E8D
:102E10008324410E0329010E8329C10D032A810D4C
:102E2000832A410D032B010D832BC10C032C810C34
:102E3000832C410C032D010C832DC10B138507003E
:102E4000130101116780000083051400930600013F
:102E500093070000138705FE1377F70F9304140000
:102E600063E8E602131727003307870103270700EB
:102E70006700070093E7170013840400830514001C
:102E800093041400138705FE1377F70FE3FCE6FCA9
:102E9000138705FD1377F70F9306900063F2E60E94
:102EA0001307A0029306F0FF6386E5101306E00205
:102EB0001307F0FF6380C50A13F6F5FD1305C00480
:102EC0006302A6061386F5FB1376F60F130570034F
:102ED0006364C52C1316260033064601032606003C
:102EE0006700060093E70701138404006FF01FF9E1
:102EF00093E74700138404006FF05FF893E707023D
:102F0000138404006FF09FF793E787001384040095
:102F10006FF0DFF61305D000EFD08F8F1305A00000
:102F20006FF05FED0388140013057003938C140099
:102F30001306F8FB1376F60F6364C52637450000C9
:102F400013162600130505233306A60003260600E4
:102F50006700060083851400130690001385140093
:102F6000138705FD1377F70F637AE6261307A00290
:102F70006382E52A93040500130700006FF0DFF376
:102F8000930600001306900013972600B306D7009F
:102F90009384140093961600B386B60083850400CC
:102FA000938606FD138705FD1377F70FE37EE6FC96
:102FB0006FF0DFEF83A60B00930424008305240049
:102FC000938B4B00E3D406EEB306D04093E70701A2
:102FD0006FF0DFED938C040093E707041306000104
:102FE00013854B0083A50B00930B050013050B0005
:102FF000EFF05FA583871C00130B050013841C00F2
:10300000E39C07DA6FF01FDD938C04001306A00029
:103010006FF01FFD938C040003A40B00938B4B00F7
:103020006306046603060400E30C060AE30A070AC3
:10303000130604006F00C000B305E64063888500F6
:103040001306160083050600E39805FE93F70701B3
:10305000B3048640638007666352900A13074B00EF
:10306000130644003337E4003336CB009387F4FF74
:10307000134717001346160093B797003367C7002E
:1030800093C71700B3F7E700E38A0708B3678B001D
:1030900093F73700E394070893F5C4FF9307040000
:1030A00013070B00B385850003A60700130747002D
:1030B00093874700232EC7FEE398F5FE93F7C4FFDE
:1030C0003304F400B305FB0033079B0063869702CB
:1030D00003050400138617002380A500635E960095
:1030E0000306140093872700A380C50063D69700CA
:1030F000830724002381F500130B070013841C00B1
:1031000063DED400B384964013050B0013860400DD
:1031100093050002EFD05F8F330B9B0083871C0069
:10312000E39C07C86FF01FCB938C04001306F0FFDD
:103130006388C65483A50B0013060001938B4B00D4
:103140006FF0DFEA938C0400130680006FF05FE9F4
:10315000938C040093F707019384F6FF638C075266
:1031600083A70B0013071B00938B4B002300FB006E
:1031700013841C00635890781386040093050002A2
:1031800013050700EFD05F8883871C00330B950081
:10319000E39407C26FF01FC413880500938C0400EA
:1031A0009307500213071B006300F84C2300FB0039
:1031B00003880C006314084A130B070023000B005C
:1031C00003050103130410009304A00033042441F9
:1031D00093070000E31E05C06FF01FC31307000034
:1031E00013089000131627003307E6001305150097
:1031F000131717003307B70083050500130707FDF2
:10320000138605FD1376F60FE37EC8FC93040500D4
:103210006FF09FCA03A70B0083852400938B4B009C
:103220001346F7FF1356F6413377C7009384240003
:103230006FF09FC81307C00603A60B0093E70704AF
:10324000938B4B006392E55C37470000130707340C
:10325000834846000348060003451600034E260037
:103260000343360083455600935348001376F80015
:1032700093524500935F4E00135F430093DE480076
:103280001373F30013F8F8001375F500137EFE00B6
:103290003306C7003305A700B3086700B303770000
:1032A000B3025700B30FF701330EC701330FE70125
:1032B000B30ED7013308070113D3450003440600BA
:1032C000834C05003306670083C3030083C20200FA
:1032D00083CF0F00034E0E00034F0F0083C808007A
:1032E00083CE0E00034808000345060093F5F50061
:1032F0001306A003A30C8100230C7100230DC10051
:10330000A30D5100230E9101A30EC100230FF10163
:10331000A30FC1012300C102A300E1032301110394
:10332000A301C1022302D103A30201032303C102AB
:103330003307B700A303A1020347070093F7070170
:103340001384F6FF2304E1026396074493071001F8
:1033500063DCD7421384F6FE1306040093050002D3
:1033600013050B002326D100EFD00FEA130610013E
:103370009305810133058B00EFD00FDD8326C1005B
:103380003307DB008387240013842400130B07001A
:10339000E39407A26FF01FA41307C00603A60B0057
:1033A000938B4B006392E546138709006FF05FEA49
:1033B0001308C00693E7270013854B001306A000EF
:1033C000E38205C36F008028938C0400130600017C
:1033D0006FF01FC103A60B00938B4B000347060041
:1033E000630407309305300663D4E54213054006B5
:1033F0003363A7029308A000930540001304300034
:10340000130820003347A702334513033387E9002D
:1034100003470700230CE1003387A9000345070099
:1034200033671303A30CA1003387E90003450700AA
:103430001307010B330707012304A7F61305010B3C
:1034400003471600330585001308E002230405F73F
:103450006300072C130830066354E83E1308400647
:103460009308A000130E010B330EBE009305340029
:103470003363070333470703334813033387E900F4
:10348000034707002304EEF63387090103480700CA
:1034900033671303230505F73387E9000345070066
:1034A0001307010B3307B700138415002304A7F695
:1034B0009305010B03472600338585009305E00241
:1034C0002304B5F693051400630C07261308300691
:1034D0006358E83C130840069308A000130E010B44
:1034E000330EBE00930534003363070333470703ED
:1034F000334813033387E900034707002304EEF63C
:10350000338709010348070033671303230505F7D1
:103510003387E900034507001307010B3307B700A2
:10352000138415002304A7F6034736001306010B86
:10353000B30586001306E0022384C5F613061400C3
:1035400063080722130530066354E532130540066D
:103550001308A0001303010B3303C3001306340048
:10356000B368A7023347A70233C508033387E900CE
:10357000034707002304E3F63387A9000345070048
:1035800033E708032385A5F63387E9008345070061
:103590001307010B3307C700130416002304B7F603
:1035A00093F70701938CF6FF639A07026356D438AA
:1035B000338D864013050B0013060D0093050002A2
:1035C0002326D100EFD04FC48326C100330BAB01BB
:1035D000B306D440B3869601938CF6FF13050B0017
:1035E00013060400930581012326D100EFD0CFB547
:1035F0008326C10033078B00130B07006352D402EC
:103600001306000293061000130B1B00B3876641DC
:10361000B3879701A30FCBFEB307F700E346F4FE91
:103620008387140013841400639807F86FF08FFAEF
:1036300003A60B0093E70704938B4B006FF01FDA90
:1036400093E7270013854B00938C040083A50B00A0
:103650001306A000930B05006FF05F9993072B00F2
:10366000130B07001387070023000B0183871C003F
:1036700013841C00130B0700639007F46FF08FF5A1
:1036800093E71700930680006FF0DFAA13840A31D6
:103690006FF0DF99635E90241386040013050B001E
:1036A00093050002330B9B00EFD00FB69304F0FF9D
:1036B0006FF01FAB938DF6FF63DED424338D9640FD
:1036C00013050B0013060D00930500022326D100FD
:1036D000EFD08FB38326C100330BAB01B386D44048
:1036E000B386B6016FF05F9713070003230CE10068
:1036F000130410001305010B034716003305850062
:103700001308E002230405F793052000E31407D40F
:103710001307010B3307B700930500032304B7F623
:10372000130424009305010B03472600338585000D
:103730009305E0022304B5F693051400E31807D8B7
:103740001307010B3307B700930500032304B7F6F3
:1037500013042400034736001306010BB30586004B
:103760001306E0022384C5F613061400E31C07DCED
:103770001307010B3307C7001306000313042400CB
:103780002304C7F66FF0DFE19387E6FF930604009A
:1037900013840700130610019305810113050B0024
:1037A0002326D100EFD04F9A8326C100930C10013D
:1037B00013071B01E3D8DCBC9305000213062001AC
:1037C0009306100113071700B307E640B307FB0089
:1037D000A30FB7FEB3878700E3C6F6FE6FF09FBA6C
:1037E00013090103130B090023000B000305010358
:1037F000130410009304A000330424419307000035
:10380000631805DE6FF04FE093840C006FF01FBD6E
:103810009305900063DEE50A9308A0003345170383
:103820009305300013042000130810003385A9000D
:103830000345050033671703230CA1006FF0DFBEBB
:1038400013059000E35AE5C41308A00033450703AD
:103850009308010BB388B800930524003385A900B1
:1038600003450500336707032384A8F66FF0DFC222
:1038700093059000E3DAE5D01305A000B345A70255
:103880001308010B3308C80013062400B385B900E0
:1038900083C505003367A7022304B8F66FF0DFCEB7
:1038A00013059000E356E5C61308A000334507034F
:1038B0009308010BB388B800930524003385A90051
:1038C00003450500336707032384A8F66FF05FC440
:1038D0009305200013041000130800006FF0DFB4FC
:1038E00093F40701E38804DC930400006FF01F8168
:1038F00083A70B0013071B00938B4B002300FB00D7
:1039000013841C0083871C00130B0700639607CAEF
:103910006FF04FCC93860D006FF00FF433079B00D0
:10392000130414008307F4FF130B1B00A30FFBFE0B
:10393000E318EBFE6FF04FFC9387E6FF93860C00D5
:08394000938C07006FF09FC992
:10394800B0D44033796A14E7C1E300000D0A5B4440
:10395800454255475D20436F72654D61726B204249
:103968006F6F74696E672028432D4C6576656C20EF
:103978004461746120496E6974292E2E2E0D0A0047
:103988005B44454255475D20436F7079696E6720F7
:103998002E646174612066726F6D203078257820FE
:1039A800746F20307825782E2E2E2000446F6E6597
:1039B800210D0A005B44454255475D20436C656113
:1039C80072696E67202E62737320617420307825C7
:1039D800782E2E2E200000000D0A3D3D3D20486126
:1039E8007264776172652046696E616C20426F73FC
:1039F800732054657374203D3D3D0D0A000000009E
:103A08005B5465737420315D205369676E6564206B
:103A18004272616E636820546573742E2E2E2000E6
:103A28000D0A5B464154414C204255475D20424AAD
:103A380050206576616C7561746573202D35203E64
:103A48003D20302120436865636B20247369676ECD
:103A58006564282920696E206578755F626A702E12
:103A680076210D0A00000000504153530D0A000052
:103A78005B5465737420325D205241572048617A47
:103A880061726420546573742E2E2E20000000008D
:103A98005B5465737420335D204C535520746F203C
:103AA8004272616E63682052415720546573742EC8
:103AB8002E2E20003D3D3D20416C6C2048617264F3
:103AC80077617265205465737473205061737365F0
:103AD8006421203D3D3D0D0A000000005B44454245
:103AE80055475D20496E6974204C6973742E2E2EDB
:103AF800200D0A005B44454255475D20496E6974B4
:103B0800204D61747269782E2E2E200D0A00000057
:103B18005B44454255475D20496E69742053746182
:103B280074652E2E2E200D0A000000000D0A5B443D
:103B3800454255475D2052756E6E696E672046692D
:103B48006E616C20426F737320506970656C696E8A
:103B5800652054657374732E2E2E0D0A0000000024
:103B680020202D3E205465737420383A204C6F6114
:103B7800642D5573652048617A6172642E2E2E205B
:103B8800000000004641494C21204E6F20506970CA
:103B9800656C696E65205374616C6C212052657385
:103BA8003A203078253038580D0A00004F4B0D0A5E
:103BB8000000000020202D3E205465737420393AFF
:103BC800204272616E6368205241572048617A61D1
:103BD80072642E2E2E2000004641494C2120526549
:103BE800733A2025640D0A005B44454255475D2021
:103BF800506970656C696E6520697320666C6177C1
:103C08006C657373210D0A000D0A5B4445425547E4
:103C18005D2042454E43484D41524B20535441523A
:103C28005445442120506C6561736520776169743F
:103C38002E2E2E0D0A0000000D0A5B495445522015
:103C480025645D20000000004C315F4F4B200000D0
:103C58004C325F4F4B200000535F4F4B2000000059
:103C68004D5F4F4B200000000D0A5B44454255470D
:103C78005D20416C676F726974686D2046696E6972
:103C8800736865642E2054657374696E67204449AF
:103C980056552E2E2E0D0A005B464154414C5D2090
:103CA8004449565520425547212031323334352076
:103CB8002F203130203D2025640D0A005B4F4B5DDD
:103CC800204449565520776F726B732066696E657C
:103CD8002E2050726F63656564696E6720746F206B
:103CE80066696E616C207072696E742E2E2E0D0AD4
:103CF800000000000D0A0D0A5B44454255475D204F
:103D08004C6F6F702046696E697368656421205630
:103D1800616C69646174696E6720726573756C742F
:103D2800732E2E2E0D0A0000366B20706572666F9A
:103D3800726D616E63652072756E20706172616D5F
:103D4800657465727320666F7220636F72656D614A
:103D5800726B2E0A00000000366B2076616C696475
:103D68006174696F6E2072756E20706172616D6525
:103D78007465727320666F7220636F72656D61720D
:103D88006B2E0A0050726F66696C652067656E65F8
:103D9800726174696F6E2072756E20706172616DE8
:103DA800657465727320666F7220636F72656D61EA
:103DB800726B2E0A00000000324B20706572666F2D
:103DC800726D616E63652072756E20706172616DCF
:103DD800657465727320666F7220636F72656D61BA
:103DE800726B2E0A00000000324B2076616C696409
:103DF8006174696F6E2072756E20706172616D6595
:103E08007465727320666F7220636F72656D61727C
:103E18006B2E0A004552524F5221206C6973742050
:103E280063726320307825303478202D2073686FD2
:103E3800756C64206265203078253034780A00007B
:103E48004552524F5221206D617472697820637215
:103E58006320307825303478202D2073686F756C96
:103E680064206265203078253034780A000000002C
:103E78004552524F522120737461746520637263F6
:103E880020307825303478202D2073686F756C6465
:103E9800206265203078253034780A000D0A3D3DCF
:103EA8003D20434F52454D41524B20524553554CAE
:103EB8005453203D3D3D0D0A00000000436F7265DC
:103EC8004D61726B2053697A65202020203A2025A5
:103ED8006C750A00546F74616C207469636B73208D
:103EE80020202020203A20256C750A00546F746128
:103EF8006C2074696D65202873656373293A2025E1
:103F0800640A0000497465726174696F6E732F5397
:103F180065632020203A2025640A00004552524F4C
:103F28005221204D7573742065786563757465201A
:103F3800666F72206174206C656173742031302063
:103F48007365637320666F7220612076616C6964A3
:103F580020726573756C74210A00000049746572DB
:103F68006174696F6E73202020202020203A20255C
:103F78006C750A002D4F3300436F6D70696C657264
:103F880020666C6167732020203A2025730A0000A0
:103F9800436F7272656374206F7065726174696FC4
:103FA8006E2076616C696461746564210A000000A2
:103FB8004572726F72732064657465637465640A10
:103FC800000000003D3D3D20434F52454D41524BBE
:103FD80020544553542046494E4953484544203DB2
:103FE8003D3D0D0A0000000052BE99110856D71F2A
:103FF80047070000475EBF39A4E53A8E848D00006C
:10400800DC190000DC190000981A0000981A00005A
:10401800D41A00005C4000006840000074400000B2
:1040280080400000BC400000C8400000D4400000B0
:10403800E0400000EC400000F4400000FC400000BC
:10404800044100008C40000098400000A44000009B
:10405800B040000054302E33652D3146000000007A
:104068002D542E542B2B5471000000003154332E44
:104078003465347A0000000033342E30652D545EE8
:1040880000000000352E353030652B33000000006D
:104098002D2E313233652D32000000002D38376562
:1040A8002B383332000000002B302E36652D31328C
:1040B8000000000033352E35343430300000000065
:1040C8002E31323334353030000000002D3131309C
:1040D8002E373030000000002B302E36343430308C
:1040E8000000000035303132000000003132333436
:1040F800000000002D383734000000002B31323228
:1041080000000000082F0000902E0000902E0000F4
:10411800FC2E0000902E0000902E0000902E000033
:10412800902E0000902E0000902E0000902E00008F
:10413800F02E0000902E0000E42E0000902E0000CB
:10414800902E0000742E00003036000098310000D8
:104158009831000098310000983100009831000033
:104168009831000098310000983100009831000023
:104178009831000098310000983100009831000013
:104188009831000098310000983100009831000003
:1041980098310000983100009831000098310000F3
:1041A80098310000D42F00009831000098310000A9
:1041B80098310000983100009831000098310000D3
:1041C8009831000098310000D43300009831000085
:1041D800503100004036000098310000983100004E
:1041E80098310000983100004036000098310000F6
:1041F8009831000098310000983100009831000093
:104208004431000028310000983100009831000046
:104218001430000098310000083000009831000088
:1042280098310000C833000034320000A03100008B
:10423800A0310000A0310000A0310000A031000032
:10424800A0310000A0310000A0310000A031000022
:10425800A0310000A0310000A0310000A031000012
:10426800A0310000A0310000A0310000A031000002
:10427800A0310000A0310000A0310000A0310000F2
:10428800A0310000D82F0000A0310000A0310000AC
:10429800A0310000A0310000A0310000A0310000D2
:1042A800A0310000A031000098330000A0310000C8
:1042B80054310000B0330000A0310000A0310000EC
:1042C800A0310000A0310000B0330000A031000090
:1042D800A0310000A0310000A0310000A031000092
:1042E800483100002C310000A0310000A03100004E
:1042F80018300000A03100000C300000A031000090
:10430800A0310000DC2F00003C4E554C4C3E000014
:104318003031323334353637383961626364656633
:104328006768696A6B6C6D6E6F707172737475769D
:104338007778797A000000003031323334353637F7
:1043480038394142434445464748494A4B4C4D4E0B
:104358004F505152535455565758595A000000005F
:00000001FF
