:100000001781002013010100B702004013033005DF
:1000100023A06200171500001305858097050020B6
:10002000938545FE17060020130646FE63DCC500D7
:100030008326050023A0D5001305450093854500C0
:10004000E3C8C5FE1303400423A062001705002087
:100050001305C5FB97050020938585FC6358B50003
:100060002320050013054500E34CB5FE13032004CF
:1000700023A06200EF00804F6F000000130101FD1C
:10008000232681021304010393070500A30FF4FC48
:10009000B70700402326F4FE0307F4FD8327C4FEC0
:1000A00023A0E700130000000324C1021301010391
:1000B00067800000130101FE232E1100232C810014
:1000C000130401022326A4FE6F00C0018327C4FE8F
:1000D000138717002326E4FE838707001385070094
:1000E000EFF0DFF98327C4FE83870700E39007FE64
:1000F000130000008320C1010324810113010102C8
:1001000067800000130101FD2326110223248102D0
:1001100013040103232EA4FC8327C4FD6398070066
:1001200013050003EFF09FF56F00800A8327C4FDDD
:1001300063DC07001305D002EFF05FF48327C4FDF2
:10014000B307F040232EF4FC232604FE6F00C00406
:100150000327C4FD9307A000B367F70293F7F70FD7
:100160009387070393F6F70F8327C4FE13871700BF
:100170002326E4FE1397860113578741930604FF55
:10018000B387F6002388E7FE0327C4FD9307A0008A
:10019000B347F702232EF4FC8327C4FDE34AF0FAA9
:1001A0006F0080028327C4FE9387F7FF2326F4FEA7
:1001B0008327C4FE130704FFB307F700838707FFF5
:1001C00013850700EFF09FEB8327C4FEE34CF0FCA0
:1001D0008320C10203248102130101036780000010
:1001E000130101F7232611082324810813040109B0
:1001F0001305C066EFF01FEC0323006B1307006BC1
:10020000832847001307006B032887001307006B40
:100210000325C7001307006B832507011307006B35
:10022000032647011307006B832687011307006B22
:100230000327C7019307006B83A70702232C64FAE7
:10024000232E14FB232004FD2322A4FC2324B4FC2E
:100250002326C4FC2328D4FC232AE4FC232CF4FC0E
:100260000323406D1307406D832847001307406D3B
:10027000032887001307406D0325C7001307406D4F
:10028000832507011307406D032647011307406DBF
:10029000832687011307406D0327C7019307406D2D
:1002A00083A70702232A64F8232C14F9232E04F9C8
:1002B0002320A4FA2322B4FA2324C4FA2326D4FA4E
:1002C0002328E4FA232AF4FA232804F6232A04F63E
:1002D000232C04F6232E04F6232004F8232204F80A
:1002E000232404F8232604F8232804F8232604FEF4
:1002F0006F00800F232404FE6F00800D232204FE74
:100300006F00800B0327C4FE930707009397170025
:10031000B387E700032784FEB387E700939727009E
:10032000130704FFB307F70083A607F80327C4FEEB
:100330009307070093971700B387E700032744FE4E
:10034000B387E70093972700130704FFB307F7006D
:1003500003A687FC032744FE930707009397170023
:10036000B387E700032784FEB387E700939727004E
:10037000130704FFB307F70083A747FAB307F60292
:10038000B386F6000327C4FE930707009397170070
:10039000B387E700032784FEB387E700939727001E
:1003A000130704FFB307F70023A0D7F8832744FE01
:1003B000938717002322F4FE032744FE93072000AF
:1003C000E3D2E7F4832784FE938717002324F4FE07
:1003D000032784FE93072000E3D2E7F28327C4FEBD
:1003E000938717002326F4FE0327C4FE93072000FB
:1003F000E3D2E7F0232004FE6F0080071305006AB4
:10040000EFF05FCB232E04FC6F008004032704FE73
:100410009307070093971700B387E7000327C4FDEE
:10042000B387E70093972700130704FFB307F7008C
:1004300083A707F813850700EFF0DFCC1305806A68
:10044000EFF05FC78327C4FD93871700232EF4FCCA
:100450000327C4FD93072000E3DAE7FA1305C06A17
:10046000EFF05FC5832704FE938717002320F4FE77
:10047000032704FE93072000E3D2E7F813000000EF
:100480008320C1080324810813010109678000004B
:10049000130101FE232E1100232C810013040102FD
:1004A0001305806FEFF01FC1232604FE9307200081
:1004B0002324F4FE6F000008930710002322F4FEAB
:1004C000930720002320F4FE6F008002032784FEA0
:1004D000832704FEB367F70263960700232204FE16
:1004E0006F004002832704FE938717002320F4FE49
:1004F000032704FE832704FEB307F702032784FEC5
:10050000E356F7FC832744FE63800702032584FE3D
:10051000EFF05FBF1305806AEFF0DFB98327C4FEF9
:10052000938717002326F4FE832784FE9387170002
:100530002324F4FE032784FE93072003E3DEE7F67B
:1005400013050073EFF01FB70325C4FEEFF09FBB48
:100550001305C074EFF01FB6130000008320C10123
:10056000032481011301010267800000130101FFD0
:10057000232611002324810013040101B707002062
:1005800083A7470013850700EFF0DFB2130500755E
:10059000EFF05FB21305C076EFF0DFB1B7070020D0
:1005A00083A7070013850700EFF0DFB51305C074BC
:1005B000EFF05FB013054079EFF0DFAFB707002031
:1005C00083A7870013850700EFF0DFB31305C0741E
:1005D000EFF05FAEB707002083A70700138747003F
:1005E000B707002023A0E7001305C07BEFF09FAC06
:1005F000B707002083A7070013850700EFF09FB01F
:100600001305C07EEFF01FABEFF09FBD1305C07464
:10061000EFF05FAAEFF0DFE71305C074EFF09FA9DA
:100620001305407FEFF01FA9930700001385070013
:100630008320C100032481001301010167800000B1
:100640000D0A3D3D3D20524953432D5620536F43E3
:1006500020436F6D706C65782054657374205374FB
:10066000617274203D3D3D0D0A00000054657374B5
:1006700020313A204D6174726978204D756C74692F
:10068000706C69636174696F6E2028546573746956
:100690006E67204D554C292E2E2E0D0A00000000AD
:1006A00020205B2000000000200000005D0D0A00FB
:1006B0000100000002000000030000000400000030
:1006C0000500000006000000070000000800000010
:1006D00009000000090000000800000007000000F9
:1006E00006000000050000000400000003000000F8
:1006F00002000000010000005465737420323A20AB
:100700005072696D65204E756D626572732032207E
:10071000746F203530202854657374696E672044E7
:1007200049562F52454D292E2E2E0D0A202000000D
:100730000D0A2020546F74616C207072696D6573AE
:1007400020666F756E643A20000000000D0A0000FC
:10075000436865636B696E67206D656D6F727920A4
:10076000696E69742E2E2E0D0A0000002020676C21
:100770006F62616C5F696E69745F76617220285385
:10078000686F756C642062652032303236293A20F9
:10079000000000002020676C6F62616C5F62737301
:1007A0005F61727261795B305D202853686F756C90
:1007B000642062652030293A200000002020676C08
:1007C0006F62616C5F696E69745F766172206D6FD4
:1007D000646966696564202853686F756C6420627B
:1007E000652032303330293A200000000D0A0D0A0E
:1007F000000000003D3D3D20546573742046696E45
:100800006973686564212048616C74696E67204370
:0C08100050552E203D3D3D0D0A0000001B
:08081C00EA070000400600009D
:00000001FF
